:020000040000FA
:030000000200E318
:03002B00020CDCE8
:03003300020C8537
:03006B00020BBFC6
:03007B00020C185C
:10008300020B8700000080FB120113B9000302007A
:10009300CDE4900001783879028002F0A3D8FCD92E
:1000A300FA900138AA82AB839001167846790180D1
:1000B30015E493A3AC82AD838A828B83F0A3AA82D7
:1000C300AB838C828D83D8E9D9E77582A2758313BC
:1000D30074001200F575828675830074001200F5B2
:1000E30075D0007581BF751080759F0075931E02D2
:1000F300008BC09FF59FE473D09F22D083D082C032
:100103009FE493C0E0740193C0E0740293F59F22CF
:1001130079012257656C636F6D6520746F20586990
:100123006E54616F5975616E200044533138423209
:10013300302053616D706C650057656E64753A00CD
:10014300FF000000000000000000000000000000AD
:10015300000020410000803D1200FEDF0C00120071
:10016300FEC40D001200FE430E001200FE670F00D6
:100173001200FE9B0F001200FEC40F001200FEF1DE
:100183000F001200FE1810001200FE3810001200BB
:10019300FE5E10001200FE7310001200FE801000BD
:1001A3001200FE8D10001200FEAA10001200FEB70E
:1001B30010001200FEE110001200FE1E11001200DA
:1001C300FE9111001200FEBC11001200FEFD110091
:1001D3001200FE3412001200FE3015001200FE4819
:1001E30015001200FE7515001200FEAF1500080879
:1001F30008E630E711120788120209080808C64406
:1002030080C618181822181818E9799EC608CAC695
:1002130008CBC608CCC6C370207996CACBCC70195C
:10022300798ECBCC70137986CC700EF9802ACA33C1
:10023300CACB33CBCC33CC331930E7F2CCCBCA3374
:1002430050147004EA30E00DE4CA3ACACB3BCBCC7D
:100253003CCC500209C3E913C6CC182313C6CB18F0
:10026300C6CA18C6F9221202A920F01430E72B746B
:10027300FFFCFBFA747F8022E4FCFBFA7480801A93
:10028300B48008BC00F2BB00EF800F50EBF9E4C36D
:100293009AFAE49BFBE49CFCE499C6CC18C6CB1801
:1002A300C6CA18C6F922E4C9C608CAC608CBC6D34B
:1002B300330308CCC63392F0C3947F402E94184086
:1002C30019C9B90704CACBCC225025C309CA33CAFA
:1002D300CB33CBCC33CC33D9F422F4600DC9CCC3AC
:1002E30013CB13CBCA13CAD9F6CC22E4FCFBFA22F4
:1002F30014FCFBFA22E6C33318461846184622E7D5
:10030300C33319471947194722181818E60846082E
:10031300700AE608C3337005E633F422082219197C
:1003230019E7094709700AE709C3337005E733F48E
:10033300220922E6084608C3134608336002E6335F
:10034300F422E7094709C3134709336002E733F48B
:1003530022120336602512034560201202F870034F
:10036300020302080808E76670101819E766700AA6
:100373001819E76670041819E76622F42212033687
:10038300601B12034560161202F870071203026025
:100393000CB322C0D01203027005D0D022C3223383
:1003A300D0D0501330E0EBC3E7960809E79608096D
:1003B300E7960809E7962220E0E4E6970809E6971E
:1003C3000809E6970809E6972200120336604F12E0
:1003D30003456012E7548066F612030C7011120392
:1003E30002703B090909F4F618F618F618F62212FA
:1003F300032170151202F808080860EAE6447FF644
:1004030018768018E4F618F6221202F86016120322
:10041300027012E4F608F608F608E65480F60909B5
:100423000918181822EAC0E0EBC0E0ECC0E0EDC008
:10043300E0E687F0A4FBACF008E687F0A42CFCE42C
:1004430035F0FA1809E687F0A42C4B60027401CA50
:1004530035F0FCE433FB09E687F0D2F7A42CCB3567
:10046300F0FC1908E687F0A42BCC35F0FBE433FD50
:100473000819E687F0D2E7A42C4ACB35F0CD340037
:10048300FC09E687F0D2E7A42DCC35F0FDE433FA7E
:100493000918E687F0D2F7A42CCD35F0CA3400FC56
:1004A30008E687F0D2E7D2F7A42ACC35F07A7E208B
:1004B300E70B0ACB33CBCD33CDCC33CC33CB33505B
:1004C300147004ED30E00ED2F1E4CD3DCDCC3CCC44
:1004D3003B5005DA05C2F1EB547FC63308E633928D
:1004E300F0FBE73309E733C39A502D2B70190C0D3A
:1004F3004C4D70151806E608C333700D20F10AA29F
:10050300F013F6E418800B4024E4F630F002768012
:1005130018F618F618F68024D33B14501074FFA273
:10052300F013F6187680E418F618F6800FA2F0138D
:10053300F618E63303F618ECF618EDF6D0E0FDD026
:10054300E0FCD0E0FBD0E0FA221203456046120340
:1005530036603DE9687008F618F618F618F6227446
:100563008067F7120580090909748067F72212036F
:1005730036601D1203457005191919801A12030CF0
:10058300701F120321C37003E6673319191940075B
:100593001818182208080874FFF618F618F618F643
:1005A300221203216017120302702192F01202F843
:1005B3007019501720F014080808090909E7F618FC
:1005C30019E7F61819E7F61819E7F6221202F86088
:1005D300E6E869701F0808E62480F608E436F61892
:1005E300547FB47F0CE654806007F6E418F618F6DF
:1005F30022181822E9C6CC08C6CD08C6CE08C6CF35
:10060300C0E0E8C0E0EAC0E0EBC0E009E9F809E7D0
:10061300FA09E7FBE6F918E6F8C3EC98ED99EE9AC8
:10062300EBC2E7F5F0EFC2E795F0500E600CEBCFAD
:10063300FBEACEFAE9CDF9E8CCF8EAA2E7D2E7FA89
:10064300EB33FB13F5F0EEA2E7D2E7FEEF33FFC582
:10065300F013A2E730E601B313C5F0C3C0E0C0F066
:100663007F00C39BFB605B9418600C401AD0E023AF
:10067300F9D0E0F802074F8AF0E9486003D2F0E4CA
:10068300AFF0FAF9F8803BEB30E40D89F0EA600350
:10069300D2F0E4AFF0F9CAF8EB30E30D88F0EF6085
:1006A30002D2F0AFF0E4CAC9F8EB54076014FBC3FD
:1006B300EA13FAE913F9E813F8EF135002D2E0FF53
:1006C300DBEDD0E0C0E030E739C3E49FFFF5F0ECA9
:1006D30098FC42F0ED99FD42F0EE9AFE42F0D0E034
:1006E300F9D0E0F8E5F0607AE923F9EE20E742D8A3
:1006F300028067C3EF33FFEC33FCED33FDEE33FED3
:1007030080EAEC28FCED39FDEE3AFED0E023F9D087
:10071300E0F84002801BC3EE13FEED13FDEC13FC67
:10072300EF135002D2E0FF08B800067F7F74FF800A
:100733002EEF3350178CF020F00260100CBC000C2D
:100743000DBD00080EBE000408E860DFE933E813BE
:10075300FFEE2313FE4F4D4C8008E95480FFE4FE67
:10076300FDFCEE33EF33F47004FCFD7E80D0E0FB40
:10077300D0E0FAD0E0F8D0E0CFC618CEC618CDC688
:1007830018CCC6F922181818E4C396F608E496F6AE
:1007930008E496F608E496F622E3F60809E3F60879
:1007A30009E3F60809E3F622E0F608A3E0F608A356
:1007B300E0F608A3E0F622E6F008A3E6F008A3E6D5
:1007C300F008A3E6F022E0FAA3E0FBA3E0FCA3E039
:1007D300FD22EAF0A3EBF0A3ECF0A3EDF022CAC0F4
:1007E300E0E0F208A3DAFAD0E0FA22B90010BB0085
:1007F30008E88AF084F8AAF022E4FBC8FA22EB7036
:10080300227B10C833C8C933C9335007C39AC3DB2B
:10081300F280069A50012ADBEAC833F4C8C933F4DC
:10082300C9FA2275F008E4C833C8C933C933C99A71
:10083300C99B5004C92AC93BD5F0ECFBC833F4C8A3
:10084300E4C9FA22700422600D18C6C333C608C671
:1008530033C6D5E0F41822E473D083D0822510F890
:10086300C510C39824FACEF208E520F208E9C0E0E7
:100873007908E709F208DEFAD0E0F9EFF208D0E0F0
:10088300FFD0E0FED0E0F208EEF208EFF208E473E6
:10089300A810E2FE08E208F520E9C0E07908E208C2
:1008A300F709DFFAE208FFD0E0F9E208C0E0E20866
:1008B300C0E0E208C0E088100200FBC0D0C0F088AE
:1008C300F02510F8C510C39824F3C0E0E5F0F20852
:1008D300E9F208EAF208EBF208D0E0FB7908E7094D
:1008E300F208DBFAE582F208E583F208D0E0F208C9
:1008F300D0E0F208E520F208ECF208EDF208EEF29F
:1009030008EFF222A810E208C0E0E208C0E0E20823
:10091300FAE208FB7908E208F709DFFAE208F58250
:10092300E208F583E208F5F0E208F5D0E208F520E5
:10093300E208FCE208FDE208FEE208FF8810D0E0CE
:10094300F9D0E0F8D0E03274048000C8C0E0E510CC
:10095300C398F510C81207E1D0E0F82200000000A8
:1009630000000000002F0000000007000700001433
:100973007F147F1400242A7F2A1200626408132341
:1009830000364955225000000503000000001C22D8
:100993004100000041221C000014083E0814000816
:1009A300083E0808000000A06000000808080808C6
:1009B300000060600000002010080402003E51495E
:1009C300453E0000427F40000042615149460021FC
:1009D30041454B31001814127F1000274545453916
:1009E300003C4A4949300001710905030036494971
:1009F300493600064949291E00003636000000002A
:100A03005636000000081422410000141414141474
:100A1300000041221408000201510906003249591D
:100A2300513E007C1211127C007F49494936003E39
:100A330041414122007F4141221C007F49494941F4
:100A4300007F09090901003E4149497A007F0808EE
:100A5300087F0000417F4100002040413F01007FAB
:100A630008142241007F40404040007F020C027F77
:100A7300007F0408107F003E4141413E007F090989
:100A83000906003E4151215E007F091929460046AF
:100A9300494949310001017F0101003F4040403F86
:100AA300001F2040201F003F4038403F00631408D0
:100AB30014630007087008070061514945430000AB
:100AC3007F41410000552A552A55000041417F00CE
:100AD30000040201020400404040404000000102C3
:100AE3000400002054545478007F484444380038AC
:100AF3004444442000384444487F00385454541834
:100B030000087E0901020018A4A4A47C007F080445
:100B130004780000447D4000004080847D00007F15
:100B2300102844000000417F4000007C0418047832
:100B3300007C0804047800384444443800FC24242E
:100B430024180018242418FC007C08040408004816
:100B53005454542000043F444020003C4040207C37
:100B6300001C2040201C003C4030403C0044281026
:100B73002844001CA0A0A07C004464544C441414DA
:100B830014141414C0E074F21208BEA2AFE433FECE
:100B9300C2AFE5E9A2E6501A9000FDE0F8A3E0F940
:100BA300E8496008E0F583888212085A759B005370
:100BB300E9BFEEA2E092AF7F01020907C0E074F142
:100BC3001208BEC2C5E58960477E00750801750934
:100BD30000EE7808120847AF08E5895F602BEEC383
:100BE30033F8E433F974FF28F5827400120C6E6055
:100BF30014EEC333F8E433F974FF28F5827400125A
:100C03000C7912085AEFF452890EEEC3940840BBD4
:100C13007F02020907C0E074F11208BEC2EBE58A45
:100C230060477E00750801750900EE7808120847D1
:100C3300AF08E58A5F602BEEC333F8E433F9740F32
:100C430028F5827401120C6E6014EEC333F8E4339A
:100C5300F9740F28F5827401120C7912085AEFF413
:100C6300528A0EEEC3940840BB80A539F583E0F8A1
:100C7300A3E0F9E8492239F583E0F8A3E0F5838896
:100C83008222C0E074F11208BEC2E8E58B60477EA1
:100C930000750801750900EE7808120847AF08E5EA
:100CA3008B5F602BEEC333F8E433F9741F28F582AE
:100CB3007401120C6E6014EEC333F8E433F9741F3D
:100CC30028F5827401120C7912085AEFF4528B0E34
:100CD300EEC3940540BB020C13C2C732120197D274
:100CE300AF79017A7D7B0012019190007DE0C2E72C
:100CF300F0640570357905120DB65004D2F0800208
:100D0300C2F0A2F0E43390016DF0900082E0A2E71C
:100D13004003020DAE900080E0F8900001E06860AF
:100D230003020DAEA37401020DADE024F590016A38
:100D3300F090007DE0F9120DB65004D2F08002C2AB
:100D4300F0A2F0E43390016DF0900085E0F8A3E0A9
:100D5300F9900166E8F0A3E9F090016B7487F0A3C2
:100D63007400F090016AE0F83395E0F9748728F88D
:100D7300740039F988828983E090016EF088828952
:100D830083A3E0A2E7501C900165E0F8900080E0A7
:100D930068601090007EE054DF6441700690016F3C
:100DA3007401F0900080E0900165F0C2AF12019DE4
:100DB3000200FB7A7E7B0012019190007EE0A2E5A7
:100DC3002274F912085CEAFEEBFF120185E9640163
:100DD300700479018067C2AF900008EEF0A3EFF0D2
:100DE30090016BE4F0A3F090000304F09001711202
:100DF30007C99000041207D575F005120F57E0A438
:100E030024D490618FF0900009120F39E890617437
:100E1300F0E9A3F0900008E0F8A3120F44E8906112
:100E230072F0E9A3F0E5A8F8C2AF9000FD745BF09F
:100E3300A37401F0E8A2E792AFD2AF7900021104E4
:100E430074F712085CEAFEEBFF8C088D09890A909F
:100E53000003E0700675E1EC75E1E3E9C3946740D4
:100E630003750A67906193E0542270F81201977436
:100E73000B250A90000AF0120F5190000B600474C6
:100E83006180027441F0A37488F0900001E0900047
:100E93000DF0900009120F4490000EE8F0A3E9F062
:100EA300A3EEF0A3EFF0900008E0F8A3120F39903F
:100EB3000012E8F0A3E9F07A0080218A82A882E593
:100EC3000828F582E5093400F583E0C0E0741428AE
:100ED300F58274003400F583D0E0F00AEAC3950A82
:100EE30040D9740A250AF97A0A7B0012018B120190
:100EF3009D75E1E9E591A2E150FA7591FD120F515B
:100F03006012900002E4F07A4A7B021201799000A9
:100F130002E06004790080027901900003E070062A
:100F230075E1EF75E1ECE9A2E04006900001E00411
:100F3300F07F03020893E0F5838882E0F8A3E0F9E9
:100F430022E0F5838882A3A3E0F8A3E0F922120F3D
:100F530057A3E022900008E0F8A3E0F5838882A37A
:100F6300A3A3A322E5C65480F853BEFBE59DA2E5E7
:100F730050FAE59DA2E240F40074016970077449D8
:100F830048F5C68005E9700288C6E5C6F8E59E689F
:100F930070FB43BE040200FBE9F8E59EA2E64004B1
:100FA3007901801AE8700553C67F80087401687060
:100FB3000343C680E5C6F9E59E6970FB790002002C
:100FC300FBEBC313FBEA13FAEAF8EBF9E824FFFAA5
:100FD300E934FFFBE8496013000000000000000053
:100FE30000000000000000000080DD0200FB74F937
:100FF30012085CEAFEEBFFEEF8EFF9E824FFFEE9E6
:1010030034FFFFE84960097AE87B0312017980E73E
:101013007F01020893906189E04460F09061FA7463
:1010230009F09061B27415F09061AEE4F012019D85
:1010330079000200FBC00875E1EE7591FD78008030
:10104300108808EA2508F582EB3400F583E0F5D92A
:1010530008E8C39940EBD0080200FB800DE5D98A6C
:10106300828B83F0A3AA82AB8319E970F00200FBA1
:101073009061A3E0C2E6F0539AFE0200FB9061A3E5
:10108300E0D2E6F0439A010200FB78007900800881
:10109300E8240108E93400F9C3E89AE99BA2D26580
:1010A300D03340EC0200FB7800800108E8C399408C
:1010B300FA0200FB74F912085CEAFEC29779051282
:1010C30001A9750808C295790A1201A9EE54806036
:1010D30004D2968002C29612110970E9802374F932
:1010E30012085CEAFED297750808C29579051201C9
:1010F300A9EE54806004D2968002C2961211097040
:10110300E97F01020893790A1201A9D295790A129B
:1011130001A9EEC333FE1508E5082243FE0443FE8E
:101123002043FE4043FE80C2927A327B001201A329
:101133007AE21211847A2C1211847A2E1211847A93
:101143002F1211847A237B001201AF7A817B001264
:1011530001AF7A1F7B001201AF7AA27B001201AFAD
:101163007AC87B001201AF7AA07B001201AF7A40EC
:101173007B001201AF7AAF7B001201AFD292020063
:10118300FB7B001201AF7A057B001201A32274F9E5
:1011930012085CEC14FEEA24AFFAEB3400FB1201F4
:1011A300AFEEC4540F2410FA7B001201AFEE540FBC
:1011B300FA7B001201AF02110474F812085CE9FE15
:1011C300C29274E02EFE7F008F08EE75F006A4F83D
:1011D300A9F0745F28F8740939F9E82508F582E95C
:1011E3003400F583E493FA7B001201B50FEFC39447
:1011F3000640D5D2927F0202089374F612085CEC83
:10120300FEEDFFC2928A0AAC0A7D00890AAA0A7B14
:10121300001201C1800DF91201C78E828F83A3AE24
:1012230082AF838E828F83E070ECD2927F040208B8
:101233009374F212085CE51024F8F5102402F8E91F
:10124300F2EA18F2EB18F2E5102416F9780C1207FB
:101253009C7E007F00C292E51004F8E2FC7D00084A
:10126300E2FA7B001201C190017178081207AB7892
:101273000C7908120354700879301201C702135015
:1012830090017178081207AB780C7908120380502B
:101293000B792D1201C7E50FB2E7F50F850C088511
:1012A3000D09850E0A850F0B7808120269AA08AB8F
:1012B30009E4F50AF50B780812020C780C79081288
:1012C300054CEA4B600302138979301201C7900180
:1012D3007178081207AB780C7908120354606E79A1
:1012E3002E1201C7A810E2F8EFC398506090017561
:1012F30078081207AB780C79081203CC850C0885A3
:101303000D09850E0A850F0B7808120269E508247A
:1013130030F91201C7850C08850D09850E0A850F62
:101323000B7808120269E5093395E0F50AF50B78A5
:10133300081201F1780C790812054C0F90017178AD
:10134300081207AB780C79081203547097D292E510
:10135300102408F5107F08020893EAFCF8EBF97AE9
:101363000A7B001207EE88088909AA08AB0975F001
:1013730005EAA433F8ECC3982430C0E0E510240355
:101383002EF8D0E0F20EEA4B70D0EE70030212D1C9
:10139300E51024032E14F8E2F91201C71E80EB9026
:1013A300012E7407F0A37420F0A37419F0A3740141
:1013B300F07900120173E96016790112016D790069
:1013C300120173E960097A327B0012017F80F77999
:1013D3000012016DD2AF43FE0143FE0243FE10C271
:1013E30094C291C29053F3EF53FDEF53F3DF53FDD8
:1013F300DF1201BBC2927E008E08E50824B0FAE436
:101403003400FB1201AF7A107B001201AF7A007B2C
:10141300001201AF7F847A007B001201B51FEF70C9
:10142300F50EEEC3940940D0D2927C387D017A0147
:1014330079011201CD7C4F7D017A0179021201CD30
:101443007C5E7D017A0179041201CD120185E96484
:101453000170097A327B0012017F80F790012C74AE
:10146300EEF0A374BEF07A2C7B01120161E96401F2
:1014730070097A327B0012017F80F79000037401B8
:10148300F075E1EC75E1E3D290121527794412016E
:10149300E57A507BC31201D912152779BE1201E5F3
:1014A3001201EBE9F5081201EBE508900136F0A310
:1014B300E9F07A017B0012017F900136E0F508A381
:1014C300E0F509E4F50AF50B780812020C900179AE
:1014D300780C1207AB7808790C1203CC90013278A0
:1014E300081207BA90013212094A7B017A50790433
:1014F3001201D3E5102404F510900137E09001297F
:10150300F0900136E090012AF079037C297D017A7D
:10151300EF7BBE120167D2AFC2907AE87B03120160
:101523007F02148A1201DF79CC1201E522800300C5
:101533000000EAF8EBF9E824FF1AE934FFFBE84975
:1015430070ED0200FB43FD02D281C2817A267B0249
:101553001201D9D28153FDFD7A287B001201D9A251
:101563008140FC7AF07B001201D943FD02D2810253
:1015730000FB74F812085CE9FF43FD027E00C281A0
:10158300750801750900EE7808120847E5085F60E1
:1015930004D2818002C2817A287B001201D9D281D0
:1015A3000EEEC3940840D7D2810211F874F61208E4
:1015B3005CF508FEC281D28153FDFDA281750A014B
:1015C300750B00EE780A5009120847E50A420880B5
:1015D30008120847E50AF452087A467B001201D93B
:0F15E30043FD020EEEC3940840CAA90802122F5E
:04000005000000E314
:00000001FF
