:020000040000FA
:030000000200E318
:03003300020CAE0E
:03006B00020BE89D
:03007B00020C4133
:10008300020BB000000080FB120113B90003020051
:10009300CDE490000178C479018002F0A3D8FCD9A3
:1000A300FA9000C4AA82AB83900116785B79018031
:1000B30015E493A3AC82AD838A828B83F0A3AA82D7
:1000C300AB838C828D83D8E9D9E77582C975831296
:1000D30074001200F575828675830074001200F5B2
:1000E30075D0007581BF751080759F0075931E02D2
:1000F300008BC09FF59FE473D09F22D083D082C032
:100103009FE493C0E0740193C0E0740293F59F22CF
:1001130079012257656C636F6D6520746F20586990
:100123006E54616F5975616E20002020202020528B
:1001330065636569766572200057656E64753A007C
:1001430054657374696E6720002057656E64753A51
:1001530000FF000000000000000000000000002E6F
:100163003600000000000020410000803D1200FE28
:10017300050D001200FEEA0D001200FE7F0E0012B4
:1001830000FEB30E001200FEDC0E001200FE090F8B
:10019300001200FE300F001200FE500F001200FE8E
:1001A300650F001200FE720F001200FE7F0F001297
:1001B30000FE9C0F001200FEA90F001200FED30FD9
:1001C300001200FE1010001200FE8310001200FE49
:1001D300AE10001200FEEF10001200FE26110012F6
:1001E30000FE9412001200FEE61400080808E63030
:1001F300E71112078F120206080808C64480C618C2
:10020300181822181818E9799EC608CAC608CBC65A
:1002130008CCC6C370207996CACBCC7019798ECB23
:10022300CC70137986CC700EF9802ACA33CACB33CB
:10023300CBCC33CC331930E7F2CCCBCA3350147068
:1002430004EA30E00DE4CA3ACACB3BCBCC3CCC50F9
:100253000209C3E913C6CC182313C6CB18C6CA18A0
:10026300C6F9228A088B098C0A8D0B78081202B012
:1002730020F01430E72B74FFFCFBFA747F8022E438
:10028300FCFBFA7480801AB48008BC00F2BB00EF58
:10029300800F50EBF9E4C39AFAE49BFBE49CFCE483
:1002A30099C6CC18C6CB18C6CA18C6F922E4C9C663
:1002B30008CAC608CBC6D3330308CCC63392F0C3EF
:1002C300947F402E94184019C9B90704CACBCC2295
:1002D3005025C309CA33CACB33CBCC33CC33D9F47F
:1002E30022F4600DC9CCC313CB13CBCA13CAD9F6FE
:1002F300CC22E4FCFBFA2214FCFBFA22E6C33318FB
:10030300461846184622E7C33319471947194722A7
:10031300181818E6084608700AE608C3337005E69D
:1003230033F4220822191919E7094709700AE70962
:10033300C3337005E733F4220922E6084608C313E2
:100343004608336002E633F422E7094709C313473B
:1003530009336002E733F42212033D602512034C94
:1003630060201202FF7003020309080808E76670A1
:10037300101819E766700A1819E76670041819E768
:100383006622F42212033D601B12034C6016120214
:10039300FF7007120309600CB322C0D01203097067
:1003A30005D0D022C32233D0D0501330E0EBC3E7C3
:1003B300960809E7960809E7960809E7962220E0D8
:1003C300E4E6970809E6970809E6970809E69722FD
:1003D3000012033D604F12034C6012E7548066F62F
:1003E3001203137011120309703B090909F4F6187B
:1003F300F618F618F62212032870151202FF0808E1
:100403000860EAE6447FF618768018E4F618F622C8
:100413001202FF60161203097012E4F608F608F6DA
:1004230008E65480F609090918181822EAC0E0EB17
:10043300C0E0ECC0E0EDC0E0E687F0A4FBACF00860
:10044300E687F0A42CFCE435F0FA1809E687F0A45B
:100453002C4B60027401CA35F0FCE433FB09E687D8
:10046300F0D2F7A42CCB35F0FC1908E687F0A42BC7
:10047300CC35F0FBE433FD0819E687F0D2E7A42C72
:100483004ACB35F0CD3400FC09E687F0D2E7A42D42
:10049300CC35F0FDE433FA0918E687F0D2F7A42C43
:1004A300CD35F0CA3400FC08E687F0D2E7D2F7A4D2
:1004B3002ACC35F07A7E20E70B0ACB33CBCD33CD74
:1004C300CC33CC33CB3350147004ED30E00ED2F187
:1004D300E4CD3DCDCC3CCC3B5005DA05C2F1EB5429
:1004E3007FC63308E63392F0FBE73309E733C39A59
:1004F300502D2B70190C0D4C4D70151806E608C3C2
:1005030033700D20F10AA2F013F6E418800B402497
:10051300E4F630F002768018F618F618F68024D345
:100523003B14501074FFA2F013F6187680E418F60B
:1005330018F6800FA2F013F618E63303F618ECF65C
:1005430018EDF6D0E0FDD0E0FCD0E0FBD0E0FA22DD
:1005530012034C604612033D603DE9687008F618CB
:10056300F618F618F622748067F712058709090949
:10057300748067F72212033D601D12034C70051946
:100583001919801A120313701F120328C37003E68C
:10059300673319191940071818182208080874FF37
:1005A300F618F618F618F622120328601712030934
:1005B300702192F01202FF7019501720F0140808EE
:1005C30008090909E7F61819E7F61819E7F61819DB
:1005D300E7F6221202FF60E6E869701F0808E624C6
:1005E30080F608E436F618547FB47F0CE654806036
:1005F30007F6E418F618F622181822E9C6CC08C63E
:10060300CD08C6CE08C6CFC0E0E8C0E0EAC0E0EB44
:10061300C0E009E9F809E7FA09E7FBE6F918E6F8A3
:10062300C3EC98ED99EE9AEBC2E7F5F0EFC2E795CC
:10063300F0500E600CEBCFFBEACEFAE9CDF9E8CC33
:10064300F8EAA2E7D2E7FAEB33FB13F5F0EEA2E701
:10065300D2E7FEEF33FFC5F013A2E730E601B31391
:10066300C5F0C3C0E0C0F07F00C39BFB605B941880
:10067300600C401AD0E023F9D0E0F80207568AF064
:10068300E9486003D2F0E4AFF0FAF9F8803BEB30CD
:10069300E40D89F0EA6003D2F0E4AFF0F9CAF8EBB5
:1006A30030E30D88F0EF6002D2F0AFF0E4CAC9F88E
:1006B300EB54076014FBC3EA13FAE913F9E813F8E0
:1006C300EF135002D2E0FFDBEDD0E0C0E030E739BA
:1006D300C3E49FFFF5F0EC98FC42F0ED99FD42F086
:1006E300EE9AFE42F0D0E0F9D0E0F8E5F0607AE966
:1006F30023F9EE20E742D8028067C3EF33FFEC33E0
:10070300FCED33FDEE33FE80EAEC28FCED39FDEE23
:100713003AFED0E023F9D0E0F84002801BC3EE1389
:10072300FEED13FDEC13FCEF135002D2E0FF08B80B
:1007330000067F7F74FF802EEF3350178CF020F07C
:100743000260100CBC000C0DBD00080EBE000408B6
:10075300E860DFE933E813FFEE2313FE4F4D4C80CF
:1007630008E95480FFE4FEFDFCEE33EF33F470043C
:10077300FCFD7E80D0E0FBD0E0FAD0E0F8D0E0CF03
:10078300C618CEC618CDC618CCC6F922181818E458
:10079300C396F608E496F608E496F608E496F6227D
:1007A300E3F60809E3F60809E3F60809E3F622E0AD
:1007B300F608A3E0F608A3E0F608A3E0F622E6F0C5
:1007C30008A3E6F008A3E6F008A3E6F022E0FAA304
:1007D300E0FBA3E0FCA3E0FD22EAF0A3EBF0A3EC33
:1007E300F0A3EDF022CAC0E0E6F30908DAFAD0E09C
:1007F300FA22CAC0E0E0F208A3DAFAD0E0FA22B99A
:100803000010BB0008E88AF084F8AAF022E4FBC8D1
:10081300FA22EB70227B10C833C8C933C93350079F
:10082300C39AC3DBF280069A50012ADBEAC833F489
:10083300C8C933F4C9FA2275F008E4C833C8C93308
:10084300C933C99AC99B5004C92AC93BD5F0ECFBEB
:10085300C833F4C8E4C9FA22700422600D18C6C371
:1008630033C608C633C6D5E0F41822E473D083D068
:10087300822510F8C510C39824FACEF208E520F2B9
:1008830008E9C0E07908E709F208DEFAD0E0F9EFF9
:10089300F208D0E0FFD0E0FED0E0F208EEF208EF7D
:1008A300F208E473A810E2FE08E208F520E9C0E0CC
:1008B3007908E208F709DFFAE208FFD0E0F9E20875
:1008C300C0E0E208C0E0E208C0E088100200FBC01C
:1008D300D0C0F088F02510F8C510C39824F3C0E009
:1008E300E5F0F208E9F208EAF208EBF208D0E0FBDF
:1008F3007908E709F208DBFAE582F208E583F208F2
:10090300D0E0F208D0E0F208E520F208ECF208EDBE
:10091300F208EEF208EFF222A810E208C0E0E208C3
:10092300C0E0E208FAE208FB7908E208F709DFFA17
:10093300E208F582E208F583E208F5F0E208F5D073
:10094300E208F520E208FCE208FDE208FEE208FF07
:100953008810D0E0F9D0E0F8D0E03274028000C90A
:10096300C0E0E510C399F510C91207E8D0E0F922F9
:1009730074048000C8C0E0E510C398F510C81207DE
:10098300F5D0E0F8220000000000000000002F0076
:100993000000000700070000147F147F1400242ABE
:1009A3007F2A12006264081323003649552250003F
:1009B300000503000000001C224100000041221C2E
:1009C300000014083E08140008083E080800000050
:1009D300A06000000808080808000060600000002C
:1009E3002010080402003E5149453E0000427F406A
:1009F30000004261514946002141454B3100181422
:100A0300127F10002745454539003C4A49493000CB
:100A13000171090503003649494936000649492948
:100A23001E00003636000000005636000000081491
:100A3300224100001414141414000041221408006D
:100A4300020151090600324959513E007C1211122C
:100A53007C007F49494936003E41414122007F41A4
:100A630041221C007F49494941007F0909090100CE
:100A73003E4149497A007F0808087F0000417F41D1
:100A830000002040413F01007F08142241007F40C5
:100A9300404040007F020C027F007F0408107F006B
:100AA3003E4141413E007F09090906003E41512173
:100AB3005E007F0919294600464949493100010171
:100AC3007F0101003F4040403F001F2040201F00A6
:100AD3003F4038403F006314081463000708700860
:100AE3000700615149454300007F41410000552AF9
:100AF300552A55000041417F000004020102040011
:100B0300404040404000000102040000205454547F
:100B130078007F4844443800384444442000384433
:100B230044487F00385454541800087E09010200D9
:100B330018A4A4A47C007F080404780000447D402A
:100B430000004080847D00007F10284400000041A5
:100B53007F4000007C04180478007C0804047800BB
:100B6300384444443800FC2424241800182424184E
:100B7300FC007C0804040800485454542000043F3B
:100B8300444020003C4040207C001C2040201C00AE
:100B93003C4030403C004428102844001CA0A0A046
:100BA3007C004464544C44141414141414C0E074AE
:100BB300F21208D2A2AFE433FEC2AFE5E9A2E650D7
:100BC3001A90008AE0F8A3E0F9E8496008E0F583A9
:100BD300888212086E759B0053E9BFEEA2E092AFC4
:100BE3007F0102091BC0E074F11208D2C2C5E58976
:100BF30060477E00750801750900EE780812085BEE
:100C0300AF08E5895F602BEEC333F8E433F9748CE6
:100C130028F5827400120C976014EEC333F8E433A2
:100C2300F9748C28F5827400120CA212086EEFF48A
:100C330052890EEEC3940840BB7F0202091BC0E039
:100C430074F11208D2C2EBE58A60477E0075080191
:100C5300750900EE780812085BAF08E58A5F602B20
:100C6300EEC333F8E433F9749C28F5827400120C54
:100C7300976014EEC333F8E433F9749C28F5827457
:100C830000120CA212086EEFF4528A0EEEC39408FF
:100C930040BB80A539F583E0F8A3E0F9E8492239A0
:100CA300F583E0F8A3E0F583888222C0E074F112B3
:100CB30008D2C2E8E58B60477E007508017509001C
:100CC300EE780812085BAF08E58B5F602BEEC33349
:100CD300F8E433F974AC28F5827400120C976014AD
:100CE300EEC333F8E433F974AC28F5827400120CC4
:100CF300A212086EEFF4528B0EEEC3940540BB02B2
:100D03000C3C1201A0D2AF79017A0A7B0012019A3E
:100D130090000AE0C2E7F0640570357905120DDC36
:100D23005004D2F08002C2F0A2F0E43390010AF042
:100D330090000FE0A2E74003020DD490000DE0F80D
:100D4300900001E0686003020DD4A37401020DD387
:100D5300E024F5900107F090000AE0F9120DDC5051
:100D630004D2F08002C2F0A2F0E43390010AF090C2
:100D73000012E0F8A3E0F9900103E8F0A3E9F09092
:100D830001087414F0A37400F0900107E0F83395A0
:100D9300E0F9741428F8740039F988828983E090A3
:100DA300010BF088828983A3E0A2E7501C90010223
:100DB300E0F890000DE068601090000BE054DF64F1
:100DC30041700690010C7401F090000DE090010257
:100DD300F0C2AF1201A60200FB7A0B7B0012019A4C
:100DE30090000BE0A2E52274F9120870EAFEEBFF13
:100DF300120194E9640170047901806FC2AF90001D
:100E030008EEF0A3EFF0900108E4F0A3F0900003E4
:100E130004F09001121207D09000041207DC75F061
:100E230005120E71A3A3E0A424D490618FF0900067
:100E330009E0F5838882E0F8A3E0F9E8906174F0B3
:100E4300E9A3F0120E71E0F8A3E0F9E8906172F003
:100E5300E9A3F0E5A8F8C2AF90008A7470F0A37418
:100E630001F0E8A2E792AFD2AF7900020FF690004B
:100E730008E0F8A3E0F5838882A3A322E5C65480A3
:100E8300F853BEFBE59DA2E550FAE59DA2E240F4CE
:100E9300007401697007744948F5C68005E970025A
:100EA30088C6E5C6F8E59E6870FB43BE040200FBF6
:100EB300E9F8E59EA2E640047901801AE87005533B
:100EC300C67F8008740168700343C680E5C6F9E5F0
:100ED3009E6970FB79000200FBEBC313FBEA13FA74
:100EE300EAF8EBF9E824FFFAE934FFFBE849601379
:100EF30000000000000000000000000000000000EF
:100F03000080DD0200FB74F9120870EAFEEBFFEECD
:100F1300F8EFF9E824FFFEE934FFFFE84960097AB6
:100F2300E87B0312018880E77F010208A7906189AB
:100F3300E04460F09061FA7409F09061B27415F0C6
:100F43009061AEE4F01201A679000200FB800DE58A
:100F5300D98A828B83F0A3AA82AB8319E970F0024A
:100F630000FB9061A3E0C2E6F0539AFE0200FB90FF
:100F730061A3E0D2E6F0439A010200FB7800790016
:100F83008008E8240108E93400F9C3E89AE99BA240
:100F9300D265D03340EC0200FB7800800108E8C33F
:100FA3009940FA0200FB74F9120870EAFEC29779BD
:100FB300051201B2750808C295790A1201B2EE54FE
:100FC300806004D2968002C296120FFB70E98023E0
:100FD30074F9120870EAFED297750808C29579056C
:100FE3001201B2EE54806004D2968002C296120FB0
:100FF300FB70E97F010208A7790A1201B2D2957941
:101003000A1201B2EEC333FE1508E5082243FE04BB
:1010130043FE2043FE4043FE80C2927A327B00129D
:1010230001AC7AE21210767A2C1210767A2E121014
:10103300767A2F1210767A237B001201B87A817B9D
:10104300001201B87A1F7B001201B87AA27B00124A
:1010530001B87AC87B001201B87AA07B001201B8EC
:101063007A407B001201B87AAF7B001201B8D292AA
:101073000200FB7B001201B87A057B001201AC224F
:1010830074F9120870EC14FEEA24AFFAEB3400FB97
:101093001201B8EEC4540F2410FA7B001201B8EE0B
:1010A300540FFA7B001201B8020FF674F81208709D
:1010B300E9FEC29274E02EFE7F008F08EE75F00603
:1010C300A4F8A9F0748828F8740939F9E82508F513
:1010D30082E93400F583E493FA7B001201BE0FEF3B
:1010E300C3940640D5D2927F020208A774F6120871
:1010F30070ECFEEDFFC2928A0AAC0A7D00890AAA4F
:101103000A7B001201CA800DF91201D08E828F83EF
:10111300A3AE82AF838E828F83E070ECD2927F0482
:101123000208A774F2120870E51024F8F5102402DF
:10113300F8E9F2EA18F2EB18F2E5102416F9780C44
:101143001207A37E007F00C292E51004F8E2FC7D43
:101153000008E2FA7B001201CA9001127808120714
:10116300B2780C790812035B700879301201D0024F
:10117300124290011278081207B2780C7908120310
:1011830087500B792D1201D0E50FB2E7F50F850CCF
:1011930008850D09850E0A850F0B7808120270AABF
:1011A30008AB09E4F50AF50B7808120209780C7903
:1011B30008120553EA4B600302127B79301201D007
:1011C30090011278081207B2780C790812035B6059
:1011D3006E792E1201D0A810E2F8EFC398506090F8
:1011E300011678081207B2780C79081203D3850C1C
:1011F30008850D09850E0A850F0B7808120270E524
:10120300082430F91201D0850C08850D09850E0AD2
:10121300850F0B7808120270E5093395E0F50AF59E
:101223000B78081201EE780C79081205530F900120
:101233001278081207B2780C790812035B7097D200
:1012430092E5102408F5107F080208A7EAFCF8EBE2
:10125300F97A0A7B0012080288088909AA08AB09EF
:1012630075F005EAA433F8ECC3982430C0E0E51028
:1012730024032EF8D0E0F20EEA4B70D0EE70030296
:1012830011C3E51024032E14F8E2F91201D01E80D5
:10129300EBEEC0E078007900801A8A828B83E0F558
:1012A300C1A3AA82AB83A2E950FCC2E9E8240108E6
:1012B300E93400F9C3E89CE99DA2D265D03340DA52
:1012C300D0E0FE0200FB9000BB7407F0A37420F093
:1012D300A37419F0A37401F09000B974EFF0A37430
:1012E300BEF07900120182E96016790112017C795E
:1012F30000120182E960097A327B0012018E80F7C5
:10130300790012017CD2AF43FE0143FE0243FE107B
:10131300C294C291C29053F3EF53FDEF53F3DF53E3
:10132300FDDF75F10075F30C53FF3F43868043C522
:101333000B43C2D8D2E943864043A8841201C4C2F6
:10134300927E008E08E50824B0FAE43400FB120113
:10135300B87A107B001201B87A007B001201B87FC3
:10136300847A007B001201BE1FEF70F50EEEC3946A
:101373000940D0D2927CC47D007A0179011201D652
:101383007CDB7D007A0179021201D67CEA7D007A4A
:101393000179041201D6120194E9640170097A32C9
:1013A3007B0012018E80F77AB97B00120176E96423
:1013B3000170097A327B0012018E80F77C087D0070
:1013C3007AF17B001201E29000037401F075E1EC05
:1013D30075E1E302145A9000BFE0607B9000BFE424
:1013E300F09000C01209737B017A5079041201DC7A
:1013F300E5102404F5109000C01207D0120266A86D
:101403000875F00AE884243090010EF0E875F00ABC
:1014130084E5F02430A3F09000C078081207B2905E
:101423000116780C1207B27808790C1203D37808E6
:10143300120270E50875F00A84E5F024309001117A
:10144300F07C077D007AFA7B001201E27C047D00C8
:101453007A0E7B011201E290010CE070030213D9B2
:10146300C2AF900107E0F8C394035004E8FE800282
:101473007E038E08750900780812095EA3E0FCA3B9
:10148300E0FD7AB67B001201E80510051090010C0F
:10149300E4F0D2AF900107E0F8C394035006E8707C
:1014A300030213D99000B6E0F9A3E0FAE42AF50C9D
:1014B300E9F50D3395E0F50EF50F780C1201EE907A
:1014C300011A78081207B2780C79081203D3900036
:1014D300C0780C1207C1D2F0A29130F001B39291FF
:1014E3000213DF74F8120870E5102408F8E2FE080E
:1014F300E2FFEAF8EBF980188C828D83E088828919
:1015030083F0A3A882A9838C828D83A3AC82AD834D
:101513008E088F09E50824FF1EE50934FFFFE5085F
:09152300450970D47F020208A7FB
:04000005000000E314
:00000001FF
